:100000000C9434000C9451000C9451000C94510049
:100010000C9451000C9451000C9451000C9451001C
:100020000C9451000C9451000C9451000C9451000C
:100030000C9451000C9451000C9451000C945100FC
:100040000C94AC060C9451000C9456040C94510082
:100050000C9451000C9451000C9451000C945100DC
:100060000C9451000C94510011241FBECFEFD8E026
:10007000DEBFCDBF11E0A0E0B1E0E4EDFFE002C0E3
:1000800005900D92A430B107D9F711E0A4E0B1E0DA
:1000900001C01D92A635B107E1F70E9447050C94F7
:1000A000E8070C94000080912E01882311F0289A13
:1000B00001C0289880912F01882311F0299A01C04E
:1000C000299880913001882341F48091360188235A
:1000D00031F080913D01882311F02A9A01C02A98BD
:1000E00080913101882341F480913701882331F0D8
:1000F00080913E01882311F02B9A01C02B988091AA
:100100003801882311F0429A01C042988091390148
:10011000882311F0439A08954398089580913201FD
:10012000882309F45FC020911E0130911F01409186
:100130002001509121012F3F8FEF38078FEF4807A3
:100140008FEF580731F180911A0190911B01A09116
:100150001C01B0911D0182179307A407B50724F471
:10016000805A9541AF4FBF4F821B930BA40BB50B29
:1001700081539547A040B04064F08FEF9FEFAFEF01
:10018000BFEF80931E0190931F01A0932001B093B5
:1001900021014C9927C080911E0190911F01A091CF
:1001A0002001B09121018F5F9F4FAF4FBF4FD1F41E
:1001B00080912E01882321F481E080932E0102C0DA
:1001C00010922E0180911A0190911B01A0911C01A7
:1001D000B0911D0180931E0190931F01A0932001F7
:1001E000B093210180913301882309F45FC02091ED
:1001F00022013091230140912401509125012F3F8C
:100200008FEF38078FEF48078FEF580731F1809154
:100210001A0190911B01A0911C01B0911D01821740
:100220009307A407B50724F4805A9541AF4FBF4FF9
:10023000821B930BA40BB50B81539547A040B04094
:1002400064F08FEF9FEFAFEFBFEF809322019093A9
:100250002301A0932401B09325014D9927C08091DB
:10026000220190912301A0912401B09125018F5F7B
:100270009F4FAF4FBF4FD1F480912F01882321F4BE
:1002800081E080932F0102C010922F0180911A010A
:1002900090911B01A0911C01B0911D01809322013E
:1002A00090932301A0932401B09325018091340100
:1002B000882309F464C080913601882309F05FC067
:1002C0002091260130912701409128015091290168
:1002D0002F3F8FEF38078FEF48078FEF580731F127
:1002E00080911A0190911B01A0911C01B0911D01F8
:1002F00082179307A407B50724F4805A9541AF4F9E
:10030000BF4F821B930BA40BB50B81539547A040A5
:10031000B04064F08FEF9FEFAFEFBFEF8093260107
:1003200090932701A0932801B09329014E9927C0EB
:100330008091260190912701A0912801B091290177
:100340008F5F9F4FAF4FBF4FD1F480913001882313
:1003500021F481E08093300102C01092300180913D
:100360001A0190911B01A0911C01B0911D01809375
:10037000260190932701A0932801B0932901809131
:100380003501882309F464C080913701882309F07E
:100390005FC020912A0130912B0140912C01509196
:1003A0002D012F3F8FEF38078FEF48078FEF58074A
:1003B00031F180911A0190911B01A0911C01B09123
:1003C0001D0182179307A407B50724F4805A9541AD
:1003D000AF4FBF4F821B930BA40BB50B81539547B7
:1003E000A040B04064F08FEF9FEFAFEFBFEF80937E
:1003F0002A0190932B01A0932C01B0932D014F99CA
:1004000027C080912A0190912B01A0912C01B091DD
:100410002D018F5F9F4FAF4FBF4FD1F480913101BE
:10042000882321F481E08093310102C010923101D0
:1004300080911A0190911B01A0911C01B0911D01A6
:1004400080932A0190932B01A0932C01B0932D014E
:100450000895DF93CF93CDB7DEB72C970FB6F894FE
:10046000DEBF0FBECDBF1A821B821C821D821E8280
:100470001F82188619861A861B861C86589A5A9AD5
:1004800085E0898380912E01882319F08A81806814
:100490008A8380912F01882319F08A8180648A835E
:1004A00080913001882319F08A8180628A8380914B
:1004B0003101882319F08A8180618A838091320119
:1004C000882319F08A8188608A8380913301882388
:1004D00019F08A8184608A8380913401882319F01D
:1004E0008A8182608A8380913501882319F08A810C
:1004F00081608A8380913601882319F08B81806422
:100500008B8380913701882319F08B8180628B83E4
:1005100080913801882319F08B8180618B838091D1
:100520003901882319F08B8188608B8380913A018F
:10053000882319F08B8184608B8380913B01882311
:1005400019F08B8182608B8380913C01882319F0A4
:100550008B8181608B8381E40E94E4059C01832F61
:10056000992787FD9A958C832D834C9B03C08E81A0
:1005700080688E834D9B03C08E8180648E834E9BEA
:1005800003C08E8180628E834F9B03C08E81806109
:100590008E8380914B018F838091490188874B9B8B
:1005A00003C08985806889871C9B03C08985806416
:1005B0008987349B03C0898580628987359B03C006
:1005C0008985806189878A819981890F9B81890FBB
:1005D0009C81890F9D81890F9E81890F9F81890F41
:1005E0009885890F9985890F81958A878EEF8B87EA
:1005F0008DEF8C87CE0101966CE070E00E94BB0508
:1006000061E070E080E090E00E9428075A985898D6
:100610002C960FB6F894DEBF0FBECDBFCF91DF9101
:10062000089580913601882361F180913F018823EC
:10063000B9F00E94F40620914101309142014091AD
:10064000430150914401621B730B840B950B6B307B
:1006500071058105910520F010923F0110923D0136
:100660004E990FC081E080933D0180933F010E942D
:10067000F40660934101709342018093430190938B
:100680004401809137018823A1F1809140018823A2
:10069000F9F00E94F4062091450130914601409105
:1006A000470150914801621B730B840B950B2091FD
:1006B0000001309101014091020150910301261780
:1006C00037074807590720F41092400110923E0165
:1006D0004F9B0FC081E080933E01809340010E94B8
:1006E000F40660934501709346018093470190930F
:1006F0004801089580E00E94DC05109232018823B1
:1007000019F081E08093320181E00E94DC051092B3
:100710003301882319F081E08093330182E00E9445
:10072000DC0510923401882319F081E080933401B4
:1007300083E00E94DC0510923501882319F081E0E6
:100740008093350184E00E94DC05109236018823F5
:1007500019F081E08093360185E00E94DC0510925B
:100760003701882319F081E080933701089580E0F4
:10077000609132010E94CF0581E0609133010E94B7
:10078000CF0582E0609134010E94CF0583E0609143
:1007900035010E94CF0584E0609136010E94CF05AB
:1007A00085E0609137010E94CF0508959091050181
:1007B00097FF04C081E080932E0102C010922E01A9
:1007C00096FF04C081E080932F0102C010922F0198
:1007D00095FF04C081E08093300102C01092300187
:1007E00094FF04C081E08093310102C01092310176
:1007F00093FF04C081E08093320102C01092320165
:1008000092FF04C081E08093330102C01092330153
:1008100091FF04C081E08093340102C01092340142
:1008200090FF04C081E08093350102C01092350131
:1008300080910601982F86FF04C081E080933601E5
:1008400002C01092360195FF04C081E08093370109
:1008500002C01092370194FF04C081E080933801F8
:1008600002C01092380193FF04C081E080933901E7
:1008700002C01092390192FF04C081E080933A01D6
:1008800002C010923A0191FF04C081E080933B01C5
:1008900002C010923B0190FF04C081E080933C01B4
:1008A00002C010923C010E94B70308951F920F925C
:1008B0000FB60F9211242F933F934F935F936F9333
:1008C0007F938F939F93AF93BF93EF93FF9351C009
:1008D000A0911801B09119019D012F5F3F4F3093F6
:1008E00019012093180122303105CCF1F901EE5F96
:1008F000FE4F80818E3F99F5AC5FBE4F8C918D3F4E
:1009000071F52630310539F580910401853091F477
:1009100080910501853071F480910601853051F494
:1009200080910701853031F40E942902109219014B
:100930001092180180910401853069F480910501BD
:1009400090910601890F8B5F81959091070189171E
:1009500011F40E94D603109219011092180180918F
:10096000180190911901439724F0109219011092E7
:10097000180180911801909119018C5F9E4F0E947F
:10098000AF05882309F0A4CFFF91EF91BF91AF91FC
:100990009F918F917F916F915F914F913F912F9197
:1009A0000F900FBE0F901F9018952DE088E190E0FA
:1009B0000FB6F894A895809360000FBE2093600056
:1009C000529A5A9878940E948B0760E072EC81E00A
:1009D00090E00E947A05259A2D9A84B1886884B99E
:1009E000229A219A209A57985698559854985F9A27
:1009F0005E9A5D9A5C9A249853982C9A5B9A3A9ADC
:100A00003B9A3C983D98449A459A10922E01109238
:100A10002F01109230011092310110923801109282
:100A2000390110923A0110923B0110923C018FEF74
:100A30009FEFAFEFBFEF80931E0190931F01A09334
:100A40002001B09321018093220190932301A09370
:100A50002401B09325018093260190932701A09350
:100A60002801B093290180932A0190932B01A09330
:100A70002C01B0932D010E947A0310923D01109237
:100A80003E0110923F0110924001509808951F932B
:100A90000E94D50410E2A89580911A0190911B0143
:100AA000A0911C01B0911D010196A11DB11D809363
:100AB0001A0190931B01A0931C01B0931D01805655
:100AC0009A4EA040B04079F485B1812785B989E478
:100AD00091E00E94FB0510921A0110921B011092E6
:100AE0001C0110921D010E948E000E9411030E94A1
:100AF0005300D1CF9B01AC016050774F824C9F4F88
:100B0000F2E0660F771F881F991FFA95D1F7E3E08F
:100B1000220F331F441F551FEA95D1F70E94C607C5
:100B2000C901DA010197A109B109292F3A2F4B2FE9
:100B300055270196A11DB11D2093C50081508093BA
:100B4000C40082E08093C000E1ECF0E088E18083A3
:100B500080818068808386E08093C2000895FC01D4
:100B60008091C00087FD02C080E008958091C6009A
:100B7000808381E00895AC0120E030E00CC0FA01F0
:100B8000E20FF31FE0818091C00085FFFCCFE0936E
:100B9000C6002F5F3F4F2617370788F30895F9994E
:100BA000FECF1FBA90E092BD81BD60BD0FB6F89434
:100BB000FA9AF99A0FBE0895F999FECF90E092BD86
:100BC00081BDF89A80B5089580937C008AE090E01A
:100BD0000E94810786EC80937A0080917A0086FDDE
:100BE000FCCF9091780080917900382F20E0290F78
:100BF000311DC90108954F925F926F927F928F923B
:100C00009F92AF92BF92CF92DF92EF92FF920F939B
:100C10001F93DF93CF9300D000D00F92CDB7DEB7F4
:100C20005C0119821A821B821C821D82389A4098AC
:100C300064E170E080E090E00E942807409A80E53F
:100C400090E00E948107389884ED9EEFF501918332
:100C500080839383828380E197E203C0009749F108
:100C60000197309BFBCF80E197E203C0009709F129
:100C700001973099FBCF04C00097D9F001970EC0BF
:100C800027E0922E8824CC24DD242E010894411CD8
:100C9000511C91E0692E712C80E197E2309BECCFE2
:100CA0000E9402077B018C0180E197E206C0009759
:100CB00019F42EEF3FEF39C001973099F8CF0E9419
:100CC00002076E197F09800B910B6932710581054E
:100CD000910568F0F201E80DF11D9301092C02C0A5
:100CE000220F331F0A94E2F78081822B80839920A0
:100CF00021F4839487E0982E01C09A940894C11C33
:100D0000D11CF8E2CF16D10439F68981F501808330
:100D100011829B8192831382980F8D81891719F418
:100D200020E030E002C02FEF3FEFC9010F900F909D
:100D30000F900F900F90CF91DF911F910F91FF9027
:100D4000EF90DF90CF90BF90AF909F908F907F906B
:100D50006F905F904F9008951F920F920FB60F9271
:100D600011242F933F938F939F93AF93BF938091C1
:100D7000510190915201A0915301B09154013091D1
:100D800055010196A11DB11D232F2D5F2D3720F098
:100D90002D570196A11DB11D20935501809351013E
:100DA00090935201A0935301B093540180914D014F
:100DB00090914E01A0914F01B09150010196A11D5B
:100DC000B11D80934D0190934E01A0934F01B093BC
:100DD0005001BF91AF919F918F913F912F910F90B3
:100DE0000FBE0F901F9018958FB7F8942091510166
:100DF0003091520140915301509154018FBFB9017C
:100E0000CA0108959FB7F89420914D0130914E0189
:100E100040914F015091500186B5A89B06C08F3F6D
:100E200021F02F5F3F4F4F4F5F4F9FBF542F432FF6
:100E3000322F2227280F311D411D511D82E0220F24
:100E4000331F441F551F8A95D1F7B901CA01089570
:100E50009B01AC017FB7F89480914D0190914E01B8
:100E6000A0914F01B091500166B5A89B05C06F3F9E
:100E700019F00196A11DB11D7FBFBA2FA92F982F80
:100E80008827860F911DA11DB11D62E0880F991F53
:100E9000AA1FBB1F6A95D1F7BC012DC0FFB7F894FC
:100EA00080914D0190914E01A0914F01B091500160
:100EB000E6B5A89B05C0EF3F19F00196A11DB11D35
:100EC000FFBFBA2FA92F982F88278E0F911DA11D24
:100ED000B11DE2E0880F991FAA1FBB1FEA95D1F749
:100EE000861B970B885E9340C8F2215030404040EB
:100EF000504068517C4F211531054105510571F66F
:100F00000895019739F0880F991F880F991F02974C
:100F10000197F1F70895789484B5826084BD84B513
:100F2000816084BD85B5826085BD85B5816085BDE4
:100F3000EEE6F0E0808181608083E1E8F0E01082FD
:100F4000808182608083808181608083E0E8F0E03E
:100F5000808181608083E1EBF0E080818460808328
:100F6000E0EBF0E0808181608083EAE7F0E080815F
:100F700084608083808182608083808181608083BF
:100F80008081806880831092C1000895A1E21A2EAA
:100F9000AA1BBB1BFD010DC0AA1FBB1FEE1FFF1F1D
:100FA000A217B307E407F50720F0A21BB30BE40B6D
:100FB000F50B661F771F881F991F1A9469F76095B4
:100FC0007095809590959B01AC01BD01CF0108956E
:040FD000F894FFCFC3
:040FD400C8AF0000A2
:00000001FF
